:1000000000308A0018280000223084008313000882
:10001000031917280630F800F701F70B0D28F80B25
:100020000C287B30F700F70B1328800B0A280800F8
:1000300003081F39830007309F008313F8308316AD
:1000400086008312860106140830A100FA30A2004F
:100050000420A10B262886140830A100FA30A20043
:100060000420A10B2E2806150830A100FA30A200AA
:100070000420A10B362806100830A100FA30A20097
:100080000420A10B3E2886100830A100FA30A200FF
:100090000420A10B462806110830A100FA30A20066
:0A00A0000420A10B4E282328630062
:02400E006A2125
:00000001FF
;PIC16F627A
;CRC=F481  CREATED="25-nov.-21 21:13"
