:1000000001308A00CF2900000A108A100A118207E5
:1000100028340C34013406340A108A100A1182077D
:100020000C3400340A108A100A11820743346F34EA
:100030006E347434613464346F3472340034363066
:10004000840083130008031932280630F800F701F2
:10005000F70B2828F80B27287B30F700F70B2E2802
:10006000800B252808003D1837280611382806156A
:10007000831606118312BD183F2886114028861565
:100080008316861183123D19472806124828061642
:10009000831606128312BD194F2886125028861621
:1000A0008316861200008610831286140330F70030
:1000B000F70B5828831686108312861008008316C3
:1000C0000610831206106330F700F70B65286828C6
:1000D000BA080319702883160610831206147428B0
:1000E00083160610831206100000831686108312F2
:1000F00086103B0EBC000F30BC053C08BD00332011
:100100003B080F39BC00BD003320080083160610E1
:100110008312061083168610831286100F30B600E5
:100120001F20B3013308023C031C9E280330BD008E
:1001300033200530B6001F20B30A92280230BD00DC
:100140003320B3013308033C031CB22833080420D6
:10015000B400BA013408BB005F200530B6001F2090
:10016000B30AA228F5293B080139013C031DBD282B
:100170008316061183120615C128831606118312F1
:1001800006113B080239023C031DCB288316861159
:1001900083128615CF2883168611831286113B0899
:1001A0000439043C031DD92883160612831206164F
:1001B000DD2883160612831206123B080839083C14
:1001C000031DE7288316861283128616EB288316F2
:1001D0008612831286126330F700F70BED28F028A1
:1001E000BA080319F8288316061083120614FC288F
:1001F0008316061083120610831686108312861447
:100200000330F700F70B022983168610831286103D
:100210000800380EB9000F30B9053708BA003908A0
:10022000BB00B32038080F39B9003708BA003908C5
:10023000BB00B3200800330DF700F70DF70DF830C1
:10024000F7057708403EB400B7013408B80009212B
:100250000800B5013508073C031C3D293508330764
:1002600084008313341883170008B6000130B700E8
:100270003608B8000921B50A2A290800370B412998
:1002800044294030B8004529B80101303602B8078A
:1002900038088038B900BA013908BB005F2008006F
:1002A00035080C3A03195B29063A03196329023A07
:1002B000031969296E29BA010130BB005F200230A1
:1002C000B6001F2073290130B6000230B7003E216E
:1002D0007329BA011030BB005F2073290130BA00C6
:1002E0003508BB005F2008003608F8013502031806
:1002F0007C293508F7008829F7010830B700B50DCB
:10030000F70D360877020318F700F80DB70B7F29B1
:10031000080078083308B5006430B6007421770807
:10032000B30078083030031D9C29B41CA329B419EC
:10033000A329341A20309F29B41134123414F80739
:100340007808B50050213308B5000A30B600742192
:100350007708B30078083030031DB429B419B829E0
:10036000341CB829341A2030F8077808B500502119
:100370003030B3073308B50050211A2A0130B700D6
:100380003308B80009210800B30133080C200038F5
:100390000319CE29B30AB5005021C529392A03080B
:1003A0001F398300A101A001A20107309F00831320
:1003B0000430A300A401A5000E30A6001530A7004C
:1003C0000430A8000A30A9001130AA000430AB00A4
:1003D000AC011530AD000E30AE000430AF00B000FF
:1003E0000A30B1001130B2008628B3011B21B401DC
:1003F0002330B30029210130B3001B21B4012B307D
:10040000B30029210130B600B7003E21B301330803
:10041000122000380319102AB30AB5005021072A08
:100420000130B6000230B7003E212208B3001B3075
:10043000B40089290F30B6000230B7003E21B30165
:10044000BE210230B3009630B6001F20B30B232A22
:100450000F30B6000230B7003E210130B300BE219C
:10046000A20A0230B3009630B6001F20B30B332A25
:06047000C429022A63000A
:02400E006A2125
:00000001FF
;PIC16F627A
;CRC=2EA3  CREATED="04-dic.-21 14:56"
