:1000000001308A0002290000FF00030E8301A100D5
:100010007F08A0000A08A7008A01A00E0408A20019
:100020007708A3007808A4007908A5007A08A6003C
:10003000831383128B1E1E280B192F28220884007D
:100040002308F7002408F8002508F9002608FA001C
:1000500027088A00210E8300FF0E7F0E0900013061
:10006000A8070318A90A2908003C03184028FF3AEA
:10007000031D3E282808813C03184028A901A80137
:10008000A908031D4C282A08280203184C288316A7
:1000900006108312061450288316061083120610C9
:1000A0000B118A111E2883160108C73908388100F0
:1000B00083128B16C0308B04E63081000B29B60109
:1000C0003408B500B801B701BA01B430B900BC01B9
:1000D0000B30BB00BE013030BD0037083502BF0019
:1000E0003608C0003808031C380FC0023B083D0228
:1000F000F7003E08FA003C08031C3C0FFA027708A0
:10010000C1007A08C2004008C4003F08C30042088A
:10011000C6004108C5001030C700F701FA01C40C41
:10012000C30C031C99284508F7070318FA0A460868
:10013000FA07FA0CF70CF90CF80CC70B8F287908A2
:10014000C0007808BF0037083902F7003A08FA0003
:100150003808031C380FFA027708C1007A08C20079
:100160004008C4003F08C3004208C6004108C5005B
:10017000F801F901F701FA014608031DC2284508F4
:100180000319DC281030C7000310C30DC40DF70D90
:10019000FA0D46087A02031DCF2845087702031C92
:1001A000D8284508F702031CFA034608FA0203148C
:1001B000F80DF90DC70BC4287908C0007808BF00F6
:1001C0003B087807F8007908FA003C0803183C0F50
:1001D000FA077A08F9007808AA0008003530840088
:1001E00083130008031901290630F800F701F70B03
:1001F000F728F80BF6287B30F700F70BFD28800B6B
:10020000F428080003081F398300A901A80107305A
:100210009F0083135328B4015F200430B400FA30E8
:10022000B500EE20B40B0F295A30B4005F20043023
:10023000B400FA30B500EE20B40B1929B430B40084
:100240005F200430B400FA30B500EE20B40B23294F
:040250000B29630013
:02400E006A2125
:00000001FF
;PIC16F627A
;CRC=21E5  CREATED="16-dic.-21 16:29"
