:1000000000308A00182800002A308400831300087A
:10001000031917280630F800F701F70B0D28F80B25
:100020000C287B30F700F70B1328800B0A280800F8
:1000300003081F39830007309F0083133F30A0005F
:100040000630A1005B30A2004F30A3006630A40050
:100050006D30A5007D30A6000730A7007F30A800D6
:100060006F30A90000308316860005108312051436
:100070008316851083128510220886000530AA0099
:100080000420831605108312051083168510831231
:100090008514210886000530AA000420831635281F
:0200A0006300FB
:02400E0062212D
:00000001FF
;PIC16F627A
;CRC=B3B5  CREATED="29-nov.-21 21:59"
