:1000000001308A00F82900000A108A100A118207BC
:1000100028340C34013406340C004122431DA01254
:10002000CC3A00002E3084008313000803192528E1
:100030000630F800F701F70B1B28F80B1A287B3065
:10004000F700F70B2128800B1828080035182A28FC
:1000500008122B280816831608128312B5183228A6
:1000600088123328881683168812831235193A2885
:1000700008133B280817831608138312B519422862
:100080008813432888178316881300008811831269
:1000900088150330F700F70B4B288316881183125D
:1000A0008811080083160811831208116330F700C5
:1000B000F70B58285B28B208031963288316081128
:1000C000831208156728831608118312081100008F
:1000D0008316881183128811330EB4000F30B405D3
:1000E0003408B500262033080F39B400B5002620A7
:1000F00008008316081183120811831688118312D1
:1001000088110F30AE001220A4012408023C031C09
:1001100091280330B50026200530AE001220A40A35
:1001200085280230B5002620A4012408033C031CC6
:10013000A52824080420A500B2012508B3005220F8
:100140000530AE001220A40A95288A110A12072A47
:100150002F0BAB28AE284030B000AF28B0010130E3
:100160002E02B00730088038B100B2013108B30068
:10017000522008002D080C3A0319C528063A031925
:10018000CD28023A0319D328D828B2010130B30090
:1001900052200230AE001220DD280130AE000230C5
:1001A000AF00A820DD28B2011030B3005220DD28B6
:1001B0000130B2002D08B300522008000C300317A4
:1001C0008D0000308F0003130B08A4008B138316DF
:1001D00003178C170C140000000083120313A41BD8
:1001E0008B1703170C087F39031936290313A40052
:1001F00003170D080313A50003170F080313A60028
:100200002408AD00BA20250803178D000313260823
:1002100003178F0003130B08A7008B138316031714
:100220008C170C140000000083120313A71B8B17FC
:1002300003170C0D0E0D7F39031936290313A40083
:1002400003170D080313A50003170F080313A600D7
:100250002408AD00BA20250803178D0003132608D3
:1002600003178F008D0A03198F0AE32803138A11DD
:100270000A12272A0B08A5008B13831603178C1765
:100280000C140000000083120313A51B8B17031826
:10029000712903170C087F390313A50003170D08F4
:1002A0000313A60003170F080313A7002508AD00CA
:1002B000BA20260803178D000313270803178F00A1
:1002C00003130B08A8008B13831603178C170C1449
:1002D0000000000083120313A81B8B17A40B7129C5
:1002E000902903170C0D0E0D7F390313A50003177A
:1002F0000D080313A60003170F080313A700250812
:10030000AD00BA20260803178D0003132708031732
:100310008F008D0A03198F0A03100313A40B3A29C7
:100320008A110A12352AAC010408AB002C10831B79
:100330002C14250EF038A700A707E23EA800323E95
:10034000AA0025080F39A807A807AA07E93EA900AF
:10035000A907A907240E0F39A907AA07A90DAA0DF5
:10036000AA09AA0D24080F39AA07A70D0730A6006D
:100370000A30AA07A903031CB929A907A803031C6B
:10038000BD29A807A703031CC129A707A603031CAF
:10039000C52926308400831307302B052B138407CF
:1003A0002A30040203192B170008F700031DE02967
:1003B0002B1BE0292B1AF229AB19E0292030E32965
:1003C000AB152B123030F707A5010408A400251047
:1003D000831B25147708AD00BA20240884008313FA
:1003E00025188317840A2B1FD0298A110A123C2A48
:1003F00003081F398300A101A00183161F149F1455
:100400001F159F1107309C008313831279288316D0
:100410001F109F141F159F151F1383121F179F175F
:1004200083169F1783121F140030F8001F08C73966
:1004300078049F000230AE0012201F151F191E2ADB
:1004400083161E088312A2001E08A300DE280130B6
:10045000AE00AF00A8200D3003178D0000308F00D4
:10046000031005300313A4003A2910308400230838
:10047000A5002208A40093296430AE001220142A9B
:02048000630017
:02400E004A2F37
:00000001FF
;PIC16F877A
;CRC=F77D  CREATED="07-dic.-21 15:53"
