:1000000000308A00182800002C3084008313000878
:10001000031917280630F800F701F70B0D28F80B25
:100020000C287B30F700F70B1328800B0A28472891
:1000300003081F39830007309F0083133F30A0005F
:100040000630A1005B30A2004F30A3006630A40050
:100050006D30A5007D30A6000730A7007F30A800D6
:100060006F30A9000030831686008312AA012A0887
:10007000093C031C4B2820302A0784008313000806
:10008000AB0086000230AB00FA30AC000428AB0BAA
:0A0090004428AA0A37283628630026
:02400E006A2125
:00000001FF
;PIC16F627A
;CRC=B30B  CREATED="29-nov.-21 14:58"
