:1000000000308A0018280000233084008313000881
:10001000031917280630F800F701F70B0D28F80B25
:100020000C287B30F700F70B1328800B0A280800F8
:1000300003081F39830007309F008313FF308316A6
:10004000850000308600831286118610851C542896
:10005000851828280A30A3000420A1012108173C94
:10006000031C542886152830A200FA30A30004206F
:10007000A20B352886110C30A200FA30A300042010
:10008000A20B3D2886142830A200FA30A3000420D9
:10009000A20B452886100C30A200FA30A3000420E1
:0C00A000A20B4D28A10A2E282628630080
:02400E006A2125
:00000001FF
;PIC16F627A
;CRC=91FF  CREATED="09-dic.-21 23:55"
