:1000000000308A00182800002F3084008313000875
:10001000031917280630F800F701F70B0D28F80B25
:100020000C287B30F700F70B1328800B0A280800F8
:1000300003081F398300AA01AB0107309F00831317
:100040003F30A0000630A1005B30A2004F30A3007B
:100050006630A4006D30A5007D30A6000730A700F3
:100060007F30A8006F30A90000308316860083120D
:10007000AC012C08093C031C7128AD012D08093C7A
:10008000031C6F28AE012E081D3C031C6D2883162F
:1000900005108312051483168510831285102030F5
:1000A0002D07840083130008AF0086000530AF00E1
:1000B0000420831605108312051083168510831201
:1000C000851420302C07840083130008AF008600BD
:1000D0000530AF000420AE0A4328AD0A3E28AC0A22
:0600E000392838286300F6
:02400E0062212D
:00000001FF
;PIC16F627A
;CRC=4F4F  CREATED="30-nov.-21 22:27"
