:1000000001308A00052900000A108A100A118207AF
:1000100028340C34013406340A108A100A1182077D
:100020000C3400340A108A100A11820748346F34E5
:100030006C34613420344D3475346E3464346F3430
:1000400000340A108A100A11820743346F346D3469
:100050006F34203445347334743461347334003471
:100060002430840083130008031943280630F80065
:10007000F701F70B3928F80B38287B30F700F70B1E
:100080003F28800B362808002B18482806114928DD
:100090000615831606118312AB18502886115128B5
:1000A00086158316861183122B1958280612592893
:1000B0000616831606128312AB1960288612612871
:1000C000861683168612000086108312861403306B
:1000D000F700F70B69288316861083128610080034
:1000E00083160610831206106330F700F70B76288C
:1000F0007928A8080319812883160610831206148C
:1001000085288316061083120610000083168610B9
:1001100083128610290EAA000F30AA052A08AB0008
:10012000442029080F39AA00AB0044200800831698
:1001300006108312061083168610831286100F3065
:10014000A4003020A2012208023C031CAF28033087
:10015000AB0044200530A4003020A20AA3280230BE
:10016000AB004420A2012208033C031CC328220840
:100170000420A300A8012308A90070200530A400D2
:100180003020A20AB3280E29250BC728CA284030E0
:10019000A600CB28A60101302402A6072608803835
:1001A000A700A8012708A9007020080023080C3A1E
:1001B0000319E128063A0319E928023A0319EF283E
:1001C000F428A8010130A90070200230A4003020DA
:1001D000F9280130A4000230A500C420F928A801A4
:1001E0001030A9007020F9280130A8002308A900C8
:1001F00070200800A20122080C20003803190429ED
:10020000A20AA300D620FB283A2903081F3983003D
:10021000A101A00107309F00831397280130A4009B
:10022000A500C420A20122081220003803191C29AD
:10023000A20AA300D62013290230A200FA30A4009B
:100240003020A20B1E290130A4000230A500C420DA
:10025000A20122082120003803193229A20AA30092
:10026000D62029290430A200FA30A4003020A20BA5
:0E0270003429FA28C830A40030200E2963007B
:02400E006A2125
:00000001FF
;PIC16F627A
;CRC=C508  CREATED="01-dic.-21 20:13"
