:1000000000308A0060280000FF00030E8301A10079
:100010000A08A0008A010408A2007708A300780853
:10002000A4007908A5007A08A600831383120B1E8A
:100030001B288B182C28220884002308F70024088A
:10004000F8002508F9002608FA0020088A00210E89
:100050008300FF0E7F0E09008A110A1243283830F0
:10006000840083130008031942280630F800F701C2
:10007000F70B3828F80B37287B30F700F70B3E28B2
:10008000800B35280800B7013708043C031C5C28A6
:10009000281028088316870083120714C830B80078
:1000A0002F20281028088316870083120710C830D5
:1000B000B8002F20B70A44288B108A110A121B2877
:1000C00003081F398300FF30A80083161F149F14F4
:1000D0001F159F1107309C0083133F308312A90026
:1000E0000630AA005B30AB004F30AC006630AD008C
:1000F0006D30AE007D30AF000730B0007F30B10012
:100100006F30B200FF308316860000308800831203
:100110000B1683160117C03083128B042810280891
:100120008316870083120710B4013408093C031CAE
:10013000AF2829303407840083130008B5008800F5
:100140000230B500A7018B1BA7178B13FA30B8003C
:100150002F20A71B8B17B50BA228B40A952894282B
:0201600063003A
:02400E004A2F37
:00000001FF
;PIC16F877A
;CRC=27C9  CREATED="09-dic.-21 23:51"
