:1000000000308A00182800002B3084008313000879
:10001000031917280630F800F701F70B0D28F80B25
:100020000C287B30F700F70B1328800B0A280800F8
:1000300003081F39830007309F0083133F30A0005F
:100040000630A1005B30A2004F30A3006630A40050
:100050006D30A5007D30A6000730A7007F30A800D6
:100060006F30A900003083168600831220088600B6
:10007000831605148312051C5A288316051483124F
:1000800005183D280A30AB000420AA0A20302A07B0
:10009000840083130008AB0086002A08093C03187B
:1000A0005A280930AA0020302A0784008313000848
:1000B000AB008600831685148312851C7B2883166B
:1000C0008514831285185F280A30AB000420AA0328
:1000D00020302A07840083130008AB0086002A081A
:1000E000FF3C031D7B28AA0120302A0784008313CC
:0A00F0000008AB008600382863000A
:02400E006A2125
:00000001FF
;PIC16F627A
;CRC=4F4F  CREATED="29-nov.-21 21:12"
